:100000000C942A000C943F000C943F000C943F0089
:100010000C943F000C943F000C943F000C943F0064
:100020000C943F000C943F000C943F000C943F0054
:100030000C943F000C943F000C943F000C943F0044
:100040000C943F000C943F000C943F000C943F0034
:100050000C943F0011241FBECFE5D8E0DEBFCDBF1A
:1000600010E0A0E6B0E0E8E5F5E002C005900D92F2
:10007000A23FB107D9F70E9496010C94AA020C94F2
:100080000000982F9695969596958770913021F15E
:1000900030F09230F1F1933009F458C00895613096
:1000A00069F44BB321E030E0B90102C0660F771F5D
:1000B0008A95E2F7CB01842B8BBB08954BB321E0EB
:1000C00030E0B90102C0660F771F8A95E2F7CB01D5
:1000D000809584238BBB0895613069F448B321E097
:1000E00030E0B90102C0660F771F8A95E2F7CB01B5
:1000F000842B88BB089548B321E030E0B90102C0E9
:10010000660F771F8A95E2F7CB018095842388BB21
:100110000895613069F445B321E030E0B90102C0CF
:10012000660F771F8A95E2F7CB01842B85BB089574
:1001300045B321E030E0B90102C0660F771F8A9510
:10014000E2F7CB018095842385BB0895613069F483
:1001500042B321E030E0B90102C0660F771F8A95F3
:10016000E2F7CB01842B82BB089542B321E030E05B
:10017000B90102C0660F771F8A95E2F7CB0180951F
:10018000842382BB0895CF93DF93CDB7DEB7C054ED
:10019000D1090FB6F894DEBF0FBECDBF80E4E0E614
:1001A000F0E0DE01119601900D928A95E1F780E072
:1001B000B0C0982F969596959695282F27709130D8
:1001C00081F138F0923009F454C0933009F479C0C9
:1001D0009FC0E82FF0E0EE0FFF1F41E050E04C0F12
:1001E0005D1FE40FF51F9081913069F49AB341E0EF
:1001F00050E0BA0102C0660F771F2A95E2F79B0113
:10020000292B2ABB85C09AB341E050E0BA0102C055
:10021000660F771F2A95E2F79B01209529232ABBB9
:1002200077C0E82FF0E0EE0FFF1F41E050E04C0FE9
:100230005D1FE40FF51F9081913069F497B341E0A1
:1002400050E0BA0102C0660F771F2A95E2F79B01C2
:10025000292B27BB5DC097B341E050E0BA0102C033
:10026000660F771F2A95E2F79B012095292327BB6C
:100270004FC0E82FF0E0EE0FFF1F41E050E04C0FC1
:100280005D1FE40FF51F9081913069F494B341E054
:1002900050E0BA0102C0660F771F2A95E2F79B0172
:1002A000292B24BB35C094B341E050E0BA0102C011
:1002B000660F771F2A95E2F79B012095292324BB1F
:1002C00027C0E82FF0E0EE0FFF1F41E050E04C0F99
:1002D0005D1FE40FF51F9081913069F491B341E007
:1002E00050E0BA0102C0660F771F2A95E2F79B0122
:1002F000292B21BB0DC091B341E050E0BA0102C0EF
:10030000660F771F2A95E2F79B012095292321BBD1
:100310008F5F803208F44DCFC05CDF4F0FB6F8948A
:10032000DEBF0FBECDBFDF91CF9108950E94C30005
:100330008DE40E94260260E08CE00E94410060E8AB
:1003400075E280E090E00E943C028FE60E94370256
:100350002FEF84E39CE0215080409040E1F700C003
:10036000000085E60E9437022FEF84E39CE02150D5
:1003700080409040E1F700C000000E946A02C82F50
:10038000843449F461E081E10E94410080EA90E018
:100390000E9472020AC0843641F460E081E10E944A
:1003A00041008AEA90E00E947202CC3449F461E094
:1003B00082E10E94410085EB90E00E9472020AC037
:1003C000CC3641F460E082E10E9441008FEB90E086
:1003D0000E947202CB3449F461E083E10E94410043
:1003E0008AEC90E00E9472020AC0CB3641F460E0D1
:1003F00083E10E94410085ED90E00E947202C834C2
:1004000089F461E081E10E94410061E082E10E94A3
:10041000410061E083E10E94410081EE90E00E9492
:10042000720293CFC83609F090CF60E081E10E945C
:10043000410060E082E10E94410060E083E10E94AF
:10044000410089EE90E00E9472027FCF8D3419F056
:10045000833549F008958DB180658DB961E08CE0F8
:100460000E94410008958DB180648DB908958FB9BF
:10047000779BFECF8FB108952AB128612AB920B5A4
:10048000266820BDDC01CB01880F991FAA1FBB1F66
:10049000880F991FAA1FBB1F9C01AD01220F331F9C
:1004A000441F551F220F331F441F551F60E074E285
:1004B00084EF90E00E9488028FEF820F89B9DA0101
:1004C000C9010197A109B109892F9A2FAB2FBB2729
:1004D00080BD08955F9BFECF8CB108958CB95D9B64
:1004E000FECF08950F931F93CF93DF938C01C0E04D
:1004F000D0E003C00E946E022196F801EC0FFD1FB0
:1005000080818111F7CFDF91CF911F910F910895D5
:10051000A1E21A2EAA1BBB1BFD010DC0AA1FBB1F07
:10052000EE1FFF1FA217B307E407F50720F0A21B79
:10053000B30BE40BF50B661F771F881F991F1A94E6
:1005400069F760957095809590959B01AC01BD0110
:08055000CF010895F894FFCFDC
:100558000101010101010101010101010101010183
:100568000101010101010101010101010000010175
:100578000101010101010101010101010101010163
:100588000101010101010101010101010101010153
:1005980044494E494E475F4F4E0044494E494E47E5
:1005A8005F4F4646004C4956494E475F4F4E004CF8
:1005B8004956494E475F4F4646004B4954434845C4
:1005C8004E5F4F4E004B49544348454E5F4F464699
:1005D80000484F4D455F4F4E00484F4D455F4F46D1
:0205E8004600CB
:00000001FF
